{
  "contractName": "Evault",
  "abi": [
    {
      "inputs": [
        {
          "internalType": "string",
          "name": "_name",
          "type": "string"
        },
        {
          "internalType": "string",
          "name": "_description",
          "type": "string"
        }
      ],
      "stateMutability": "nonpayable",
      "type": "constructor"
    },
    {
      "anonymous": false,
      "inputs": [
        {
          "indexed": false,
          "internalType": "string",
          "name": "caseId",
          "type": "string"
        },
        {
          "indexed": false,
          "internalType": "address",
          "name": "lawyer",
          "type": "address"
        },
        {
          "indexed": false,
          "internalType": "address",
          "name": "client",
          "type": "address"
        }
      ],
      "name": "AccessRevoked",
      "type": "event"
    },
    {
      "anonymous": false,
      "inputs": [
        {
          "indexed": false,
          "internalType": "string",
          "name": "caseId",
          "type": "string"
        },
        {
          "indexed": false,
          "internalType": "address",
          "name": "lawyer",
          "type": "address"
        },
        {
          "indexed": false,
          "internalType": "address",
          "name": "client",
          "type": "address"
        }
      ],
      "name": "ApprovalAccepted",
      "type": "event"
    },
    {
      "anonymous": false,
      "inputs": [
        {
          "indexed": false,
          "internalType": "string",
          "name": "caseId",
          "type": "string"
        },
        {
          "indexed": false,
          "internalType": "address",
          "name": "lawyer",
          "type": "address"
        },
        {
          "indexed": false,
          "internalType": "address",
          "name": "client",
          "type": "address"
        }
      ],
      "name": "ApprovalRequested",
      "type": "event"
    },
    {
      "anonymous": false,
      "inputs": [
        {
          "indexed": false,
          "internalType": "string",
          "name": "caseId",
          "type": "string"
        },
        {
          "indexed": false,
          "internalType": "string",
          "name": "name",
          "type": "string"
        },
        {
          "indexed": false,
          "internalType": "string",
          "name": "description",
          "type": "string"
        },
        {
          "indexed": false,
          "internalType": "address",
          "name": "lawyer",
          "type": "address"
        }
      ],
      "name": "CaseCreated",
      "type": "event"
    },
    {
      "anonymous": false,
      "inputs": [
        {
          "indexed": true,
          "internalType": "address",
          "name": "userAddress",
          "type": "address"
        },
        {
          "indexed": false,
          "internalType": "string",
          "name": "name",
          "type": "string"
        },
        {
          "indexed": false,
          "internalType": "string",
          "name": "email",
          "type": "string"
        },
        {
          "indexed": false,
          "internalType": "bool",
          "name": "isLawyer",
          "type": "bool"
        }
      ],
      "name": "UserRegistered",
      "type": "event"
    },
    {
      "inputs": [
        {
          "internalType": "uint256",
          "name": "",
          "type": "uint256"
        }
      ],
      "name": "allCases",
      "outputs": [
        {
          "internalType": "string",
          "name": "caseId",
          "type": "string"
        },
        {
          "internalType": "string",
          "name": "name",
          "type": "string"
        },
        {
          "internalType": "string",
          "name": "description",
          "type": "string"
        },
        {
          "internalType": "address",
          "name": "lawyer",
          "type": "address"
        }
      ],
      "stateMutability": "view",
      "type": "function",
      "constant": true
    },
    {
      "inputs": [],
      "name": "description",
      "outputs": [
        {
          "internalType": "string",
          "name": "",
          "type": "string"
        }
      ],
      "stateMutability": "view",
      "type": "function",
      "constant": true
    },
    {
      "inputs": [],
      "name": "name",
      "outputs": [
        {
          "internalType": "string",
          "name": "",
          "type": "string"
        }
      ],
      "stateMutability": "view",
      "type": "function",
      "constant": true
    },
    {
      "inputs": [
        {
          "internalType": "string",
          "name": "_name",
          "type": "string"
        },
        {
          "internalType": "string",
          "name": "_email",
          "type": "string"
        },
        {
          "internalType": "bool",
          "name": "_isLawyer",
          "type": "bool"
        }
      ],
      "name": "registerUser",
      "outputs": [],
      "stateMutability": "nonpayable",
      "type": "function"
    },
    {
      "inputs": [
        {
          "internalType": "address",
          "name": "addr",
          "type": "address"
        }
      ],
      "name": "getIsRegistered",
      "outputs": [
        {
          "internalType": "bool",
          "name": "",
          "type": "bool"
        }
      ],
      "stateMutability": "view",
      "type": "function",
      "constant": true
    },
    {
      "inputs": [
        {
          "internalType": "address",
          "name": "addr",
          "type": "address"
        }
      ],
      "name": "getUser",
      "outputs": [
        {
          "components": [
            {
              "internalType": "address",
              "name": "userAddress",
              "type": "address"
            },
            {
              "internalType": "string",
              "name": "name",
              "type": "string"
            },
            {
              "internalType": "string",
              "name": "email",
              "type": "string"
            },
            {
              "internalType": "bool",
              "name": "isLawyer",
              "type": "bool"
            }
          ],
          "internalType": "struct Evault.User",
          "name": "",
          "type": "tuple"
        }
      ],
      "stateMutability": "view",
      "type": "function",
      "constant": true
    },
    {
      "inputs": [
        {
          "internalType": "string",
          "name": "_caseId",
          "type": "string"
        },
        {
          "internalType": "string",
          "name": "_name",
          "type": "string"
        },
        {
          "internalType": "string",
          "name": "_description",
          "type": "string"
        }
      ],
      "name": "createCase",
      "outputs": [],
      "stateMutability": "nonpayable",
      "type": "function"
    },
    {
      "inputs": [
        {
          "internalType": "string",
          "name": "_caseId",
          "type": "string"
        }
      ],
      "name": "getCase",
      "outputs": [
        {
          "components": [
            {
              "internalType": "string",
              "name": "caseId",
              "type": "string"
            },
            {
              "internalType": "string",
              "name": "name",
              "type": "string"
            },
            {
              "internalType": "string",
              "name": "description",
              "type": "string"
            },
            {
              "internalType": "address",
              "name": "lawyer",
              "type": "address"
            },
            {
              "internalType": "address[]",
              "name": "access",
              "type": "address[]"
            }
          ],
          "internalType": "struct Evault.Case",
          "name": "",
          "type": "tuple"
        }
      ],
      "stateMutability": "view",
      "type": "function",
      "constant": true
    },
    {
      "inputs": [],
      "name": "getAllCases",
      "outputs": [
        {
          "components": [
            {
              "internalType": "string",
              "name": "caseId",
              "type": "string"
            },
            {
              "internalType": "string",
              "name": "name",
              "type": "string"
            },
            {
              "internalType": "string",
              "name": "description",
              "type": "string"
            },
            {
              "internalType": "address",
              "name": "lawyer",
              "type": "address"
            },
            {
              "internalType": "address[]",
              "name": "access",
              "type": "address[]"
            }
          ],
          "internalType": "struct Evault.Case[]",
          "name": "",
          "type": "tuple[]"
        }
      ],
      "stateMutability": "view",
      "type": "function",
      "constant": true
    },
    {
      "inputs": [
        {
          "internalType": "string",
          "name": "_caseId",
          "type": "string"
        }
      ],
      "name": "getCaseAccess",
      "outputs": [
        {
          "internalType": "address[]",
          "name": "",
          "type": "address[]"
        }
      ],
      "stateMutability": "view",
      "type": "function",
      "constant": true
    },
    {
      "inputs": [
        {
          "internalType": "string",
          "name": "_caseId",
          "type": "string"
        }
      ],
      "name": "requestAccess",
      "outputs": [],
      "stateMutability": "nonpayable",
      "type": "function"
    },
    {
      "inputs": [
        {
          "internalType": "string",
          "name": "_caseId",
          "type": "string"
        },
        {
          "internalType": "address",
          "name": "_client",
          "type": "address"
        }
      ],
      "name": "approveAccess",
      "outputs": [],
      "stateMutability": "nonpayable",
      "type": "function"
    },
    {
      "inputs": [
        {
          "internalType": "string",
          "name": "_caseId",
          "type": "string"
        }
      ],
      "name": "getApprovalRequests",
      "outputs": [
        {
          "components": [
            {
              "internalType": "string",
              "name": "caseId",
              "type": "string"
            },
            {
              "internalType": "address",
              "name": "lawyer",
              "type": "address"
            },
            {
              "internalType": "address",
              "name": "client",
              "type": "address"
            },
            {
              "internalType": "bool",
              "name": "approved",
              "type": "bool"
            }
          ],
          "internalType": "struct Evault.ApprovalRequest[]",
          "name": "",
          "type": "tuple[]"
        }
      ],
      "stateMutability": "view",
      "type": "function",
      "constant": true
    },
    {
      "inputs": [
        {
          "internalType": "string",
          "name": "_caseId",
          "type": "string"
        },
        {
          "internalType": "address",
          "name": "_client",
          "type": "address"
        }
      ],
      "name": "revokeAccess",
      "outputs": [],
      "stateMutability": "nonpayable",
      "type": "function"
    }
  ],
  "bytecode": "0x60806040523480156200001157600080fd5b5060405162003500380380620035008339818101604052810190620000379190620002be565b81600090805190602001906200004f92919062000071565b5080600190805190602001906200006892919062000071565b505050620003a7565b8280546200007f9062000372565b90600052602060002090601f016020900481019282620000a35760008555620000ef565b82601f10620000be57805160ff1916838001178555620000ef565b82800160010185558215620000ef579182015b82811115620000ee578251825591602001919060010190620000d1565b5b509050620000fe919062000102565b5090565b5b808211156200011d57600081600090555060010162000103565b5090565b6000604051905090565b600080fd5b600080fd5b600080fd5b600080fd5b6000601f19601f8301169050919050565b7f4e487b7100000000000000000000000000000000000000000000000000000000600052604160045260246000fd5b6200018a826200013f565b810181811067ffffffffffffffff82111715620001ac57620001ab62000150565b5b80604052505050565b6000620001c162000121565b9050620001cf82826200017f565b919050565b600067ffffffffffffffff821115620001f257620001f162000150565b5b620001fd826200013f565b9050602081019050919050565b60005b838110156200022a5780820151818401526020810190506200020d565b838111156200023a576000848401525b50505050565b6000620002576200025184620001d4565b620001b5565b9050828152602081018484840111156200027657620002756200013a565b5b620002838482856200020a565b509392505050565b600082601f830112620002a357620002a262000135565b5b8151620002b584826020860162000240565b91505092915050565b60008060408385031215620002d857620002d76200012b565b5b600083015167ffffffffffffffff811115620002f957620002f862000130565b5b62000307858286016200028b565b925050602083015167ffffffffffffffff8111156200032b576200032a62000130565b5b62000339858286016200028b565b9150509250929050565b7f4e487b7100000000000000000000000000000000000000000000000000000000600052602260045260246000fd5b600060028204905060018216806200038b57607f821691505b602082108103620003a157620003a062000343565b5b50919050565b61314980620003b76000396000f3fe608060405234801561001057600080fd5b50600436106100ea5760003560e01c80638038cf541161008c578063b561112911610066578063b56111291461025e578063d4e068261461028e578063dfe0b5fe146102be578063fb40c22a146102da576100ea565b80638038cf54146101e25780639d5061f914610212578063b2accdaa1461022e576100ea565b8063181f51c6116100c8578063181f51c6146101455780636f77926b146101615780637284e41614610191578063775fffd7146101af576100ea565b8063019971aa146100ef57806306fdde031461010b57806310ee1b2214610129575b600080fd5b610109600480360381019061010491906123b1565b6102f8565b005b61011361059b565b6040516101209190612495565b60405180910390f35b610143600480360381019061013e91906124b7565b610629565b005b61015f600480360381019061015a9190612538565b6108d9565b005b61017b600480360381019061017691906125c3565b610b31565b60405161018891906126c2565b60405180910390f35b610199610d1f565b6040516101a69190612495565b60405180910390f35b6101c960048036038101906101c4919061271a565b610dad565b6040516101d99493929190612756565b60405180910390f35b6101fc60048036038101906101f791906124b7565b610fa5565b604051610209919061285f565b60405180910390f35b61022c60048036038101906102279190612881565b611054565b005b610248600480360381019061024391906124b7565b61143c565b6040516102559190612a4d565b60405180910390f35b610278600480360381019061027391906125c3565b611612565b6040516102859190612a7e565b60405180910390f35b6102a860048036038101906102a391906124b7565b611668565b6040516102b59190612b93565b60405180910390f35b6102d860048036038101906102d391906123b1565b61193a565b005b6102e2611c6f565b6040516102ef9190612d02565b60405180910390f35b3373ffffffffffffffffffffffffffffffffffffffff1660058360405161031f9190612d60565b908152602001604051809103902060030160009054906101000a900473ffffffffffffffffffffffffffffffffffffffff1673ffffffffffffffffffffffffffffffffffffffff16146103a7576040517f08c379a000000000000000000000000000000000000000000000000000000000815260040161039e90612dc3565b60405180910390fd5b60005b6006836040516103ba9190612d60565b90815260200160405180910390208054905081101561055b578173ffffffffffffffffffffffffffffffffffffffff166006846040516103fa9190612d60565b9081526020016040518091039020828154811061041a57610419612de3565b5b906000526020600020906003020160020160009054906101000a900473ffffffffffffffffffffffffffffffffffffffff1673ffffffffffffffffffffffffffffffffffffffff16036105485760016006846040516104799190612d60565b9081526020016040518091039020828154811061049957610498612de3565b5b906000526020600020906003020160020160146101000a81548160ff0219169083151502179055506005836040516104d19190612d60565b9081526020016040518091039020600401829080600181540180825580915050600190039060005260206000200160009091909190916101000a81548173ffffffffffffffffffffffffffffffffffffffff021916908373ffffffffffffffffffffffffffffffffffffffff16021790555061055b565b808061055390612e41565b9150506103aa565b507fcf3e6736329e80255f2b3765e818d8f45a2118c1000f3edec0b742477205339c82338360405161058f93929190612e89565b60405180910390a15050565b600080546105a890612ef6565b80601f01602080910402602001604051908101604052809291908181526020018280546105d490612ef6565b80156106215780601f106105f657610100808354040283529160200191610621565b820191906000526020600020905b81548152906001019060200180831161060457829003601f168201915b505050505081565b600260003373ffffffffffffffffffffffffffffffffffffffff1673ffffffffffffffffffffffffffffffffffffffff16815260200190815260200160002060009054906101000a900460ff166106b5576040517f08c379a00000000000000000000000000000000000000000000000000000000081526004016106ac90612f73565b60405180910390fd5b6006816040516106c59190612d60565b908152602001604051809103902060405180608001604052808381526020016005846040516106f49190612d60565b908152602001604051809103902060030160009054906101000a900473ffffffffffffffffffffffffffffffffffffffff1673ffffffffffffffffffffffffffffffffffffffff1681526020013373ffffffffffffffffffffffffffffffffffffffff16815260200160001515815250908060018154018082558091505060019003906000526020600020906003020160009091909190915060008201518160000190805190602001906107a9929190611f68565b5060208201518160010160006101000a81548173ffffffffffffffffffffffffffffffffffffffff021916908373ffffffffffffffffffffffffffffffffffffffff16021790555060408201518160020160006101000a81548173ffffffffffffffffffffffffffffffffffffffff021916908373ffffffffffffffffffffffffffffffffffffffff16021790555060608201518160020160146101000a81548160ff02191690831515021790555050507fbf8d26c6544523ca8cbee7acc683dd14f204dab191152eec87b17750273b51648160058360405161088c9190612d60565b908152602001604051809103902060030160009054906101000a900473ffffffffffffffffffffffffffffffffffffffff16336040516108ce93929190612e89565b60405180910390a150565b600260003373ffffffffffffffffffffffffffffffffffffffff1673ffffffffffffffffffffffffffffffffffffffff16815260200190815260200160002060009054906101000a900460ff1615610966576040517f08c379a000000000000000000000000000000000000000000000000000000000815260040161095d90612fdf565b60405180910390fd5b6001600260003373ffffffffffffffffffffffffffffffffffffffff1673ffffffffffffffffffffffffffffffffffffffff16815260200190815260200160002060006101000a81548160ff02191690831515021790555060405180608001604052803373ffffffffffffffffffffffffffffffffffffffff168152602001848152602001838152602001821515815250600360003373ffffffffffffffffffffffffffffffffffffffff1673ffffffffffffffffffffffffffffffffffffffff16815260200190815260200160002060008201518160000160006101000a81548173ffffffffffffffffffffffffffffffffffffffff021916908373ffffffffffffffffffffffffffffffffffffffff1602179055506020820151816001019080519060200190610a99929190611f68565b506040820151816002019080519060200190610ab6929190611f68565b5060608201518160030160006101000a81548160ff0219169083151502179055509050503373ffffffffffffffffffffffffffffffffffffffff167fd1f005bda6f032608782b72061b075bc80a64f2b8720195c85f763dbe02c8b86848484604051610b2493929190612fff565b60405180910390a2505050565b610b39611fee565b600360008373ffffffffffffffffffffffffffffffffffffffff1673ffffffffffffffffffffffffffffffffffffffff1681526020019081526020016000206040518060800160405290816000820160009054906101000a900473ffffffffffffffffffffffffffffffffffffffff1673ffffffffffffffffffffffffffffffffffffffff1673ffffffffffffffffffffffffffffffffffffffff168152602001600182018054610be990612ef6565b80601f0160208091040260200160405190810160405280929190818152602001828054610c1590612ef6565b8015610c625780601f10610c3757610100808354040283529160200191610c62565b820191906000526020600020905b815481529060010190602001808311610c4557829003601f168201915b50505050508152602001600282018054610c7b90612ef6565b80601f0160208091040260200160405190810160405280929190818152602001828054610ca790612ef6565b8015610cf45780601f10610cc957610100808354040283529160200191610cf4565b820191906000526020600020905b815481529060010190602001808311610cd757829003601f168201915b505050505081526020016003820160009054906101000a900460ff1615151515815250509050919050565b60018054610d2c90612ef6565b80601f0160208091040260200160405190810160405280929190818152602001828054610d5890612ef6565b8015610da55780601f10610d7a57610100808354040283529160200191610da5565b820191906000526020600020905b815481529060010190602001808311610d8857829003601f168201915b505050505081565b60048181548110610dbd57600080fd5b9060005260206000209060050201600091509050806000018054610de090612ef6565b80601f0160208091040260200160405190810160405280929190818152602001828054610e0c90612ef6565b8015610e595780601f10610e2e57610100808354040283529160200191610e59565b820191906000526020600020905b815481529060010190602001808311610e3c57829003601f168201915b505050505090806001018054610e6e90612ef6565b80601f0160208091040260200160405190810160405280929190818152602001828054610e9a90612ef6565b8015610ee75780601f10610ebc57610100808354040283529160200191610ee7565b820191906000526020600020905b815481529060010190602001808311610eca57829003601f168201915b505050505090806002018054610efc90612ef6565b80601f0160208091040260200160405190810160405280929190818152602001828054610f2890612ef6565b8015610f755780601f10610f4a57610100808354040283529160200191610f75565b820191906000526020600020905b815481529060010190602001808311610f5857829003601f168201915b5050505050908060030160009054906101000a900473ffffffffffffffffffffffffffffffffffffffff16905084565b6060600582604051610fb79190612d60565b908152602001604051809103902060040180548060200260200160405190810160405280929190818152602001828054801561104857602002820191906000526020600020905b8160009054906101000a900473ffffffffffffffffffffffffffffffffffffffff1673ffffffffffffffffffffffffffffffffffffffff1681526020019060010190808311610ffe575b50505050509050919050565b600260003373ffffffffffffffffffffffffffffffffffffffff1673ffffffffffffffffffffffffffffffffffffffff16815260200190815260200160002060009054906101000a900460ff166110e0576040517f08c379a00000000000000000000000000000000000000000000000000000000081526004016110d790612f73565b60405180910390fd5b600360003373ffffffffffffffffffffffffffffffffffffffff1673ffffffffffffffffffffffffffffffffffffffff16815260200190815260200160002060030160009054906101000a900460ff1661116f576040517f08c379a000000000000000000000000000000000000000000000000000000000815260040161116690613090565b60405180910390fd5b6040518060a001604052808481526020018381526020018281526020013373ffffffffffffffffffffffffffffffffffffffff168152602001600067ffffffffffffffff8111156111c3576111c2612228565b5b6040519080825280602002602001820160405280156111f15781602001602082028036833780820191505090505b508152506005846040516112059190612d60565b9081526020016040518091039020600082015181600001908051906020019061122f929190611f68565b50602082015181600101908051906020019061124c929190611f68565b506040820151816002019080519060200190611269929190611f68565b5060608201518160030160006101000a81548173ffffffffffffffffffffffffffffffffffffffff021916908373ffffffffffffffffffffffffffffffffffffffff16021790555060808201518160040190805190602001906112cd92919061202e565b5090505060046005846040516112e39190612d60565b90815260200160405180910390209080600181540180825580915050600190039060005260206000209060050201600090919091909150600082018160000190805461132e90612ef6565b6113399291906120b8565b50600182018160010190805461134e90612ef6565b6113599291906120b8565b50600282018160020190805461136e90612ef6565b6113799291906120b8565b506003820160009054906101000a900473ffffffffffffffffffffffffffffffffffffffff168160030160006101000a81548173ffffffffffffffffffffffffffffffffffffffff021916908373ffffffffffffffffffffffffffffffffffffffff16021790555060048201816004019080546113f7929190612145565b5050507f3635bb6d5d03105cee123726ce423f512b98f636243d8fdfbbaa9edcc6ee4ace8383833360405161142f9493929190612756565b60405180910390a1505050565b606060068260405161144e9190612d60565b9081526020016040518091039020805480602002602001604051908101604052809291908181526020016000905b8282101561160757838290600052602060002090600302016040518060800160405290816000820180546114af90612ef6565b80601f01602080910402602001604051908101604052809291908181526020018280546114db90612ef6565b80156115285780601f106114fd57610100808354040283529160200191611528565b820191906000526020600020905b81548152906001019060200180831161150b57829003601f168201915b505050505081526020016001820160009054906101000a900473ffffffffffffffffffffffffffffffffffffffff1673ffffffffffffffffffffffffffffffffffffffff1673ffffffffffffffffffffffffffffffffffffffff1681526020016002820160009054906101000a900473ffffffffffffffffffffffffffffffffffffffff1673ffffffffffffffffffffffffffffffffffffffff1673ffffffffffffffffffffffffffffffffffffffff1681526020016002820160149054906101000a900460ff1615151515815250508152602001906001019061147c565b505050509050919050565b6000600260008373ffffffffffffffffffffffffffffffffffffffff1673ffffffffffffffffffffffffffffffffffffffff16815260200190815260200160002060009054906101000a900460ff169050919050565b611670612197565b6005826040516116809190612d60565b90815260200160405180910390206040518060a00160405290816000820180546116a990612ef6565b80601f01602080910402602001604051908101604052809291908181526020018280546116d590612ef6565b80156117225780601f106116f757610100808354040283529160200191611722565b820191906000526020600020905b81548152906001019060200180831161170557829003601f168201915b5050505050815260200160018201805461173b90612ef6565b80601f016020809104026020016040519081016040528092919081815260200182805461176790612ef6565b80156117b45780601f10611789576101008083540402835291602001916117b4565b820191906000526020600020905b81548152906001019060200180831161179757829003601f168201915b505050505081526020016002820180546117cd90612ef6565b80601f01602080910402602001604051908101604052809291908181526020018280546117f990612ef6565b80156118465780601f1061181b57610100808354040283529160200191611846565b820191906000526020600020905b81548152906001019060200180831161182957829003601f168201915b505050505081526020016003820160009054906101000a900473ffffffffffffffffffffffffffffffffffffffff1673ffffffffffffffffffffffffffffffffffffffff1673ffffffffffffffffffffffffffffffffffffffff1681526020016004820180548060200260200160405190810160405280929190818152602001828054801561192a57602002820191906000526020600020905b8160009054906101000a900473ffffffffffffffffffffffffffffffffffffffff1673ffffffffffffffffffffffffffffffffffffffff16815260200190600101908083116118e0575b5050505050815250509050919050565b3373ffffffffffffffffffffffffffffffffffffffff166005836040516119619190612d60565b908152602001604051809103902060030160009054906101000a900473ffffffffffffffffffffffffffffffffffffffff1673ffffffffffffffffffffffffffffffffffffffff16146119e9576040517f08c379a00000000000000000000000000000000000000000000000000000000081526004016119e090612dc3565b60405180910390fd5b60005b6005836040516119fc9190612d60565b908152602001604051809103902060040180549050811015611c2f578173ffffffffffffffffffffffffffffffffffffffff16600584604051611a3f9190612d60565b90815260200160405180910390206004018281548110611a6257611a61612de3565b5b9060005260206000200160009054906101000a900473ffffffffffffffffffffffffffffffffffffffff1673ffffffffffffffffffffffffffffffffffffffff1603611c1c57600583604051611ab89190612d60565b90815260200160405180910390206004016001600585604051611adb9190612d60565b908152602001604051809103902060040180549050611afa91906130b0565b81548110611b0b57611b0a612de3565b5b9060005260206000200160009054906101000a900473ffffffffffffffffffffffffffffffffffffffff16600584604051611b469190612d60565b90815260200160405180910390206004018281548110611b6957611b68612de3565b5b9060005260206000200160006101000a81548173ffffffffffffffffffffffffffffffffffffffff021916908373ffffffffffffffffffffffffffffffffffffffff160217905550600583604051611bc19190612d60565b9081526020016040518091039020600401805480611be257611be16130e4565b5b6001900381819060005260206000200160006101000a81549073ffffffffffffffffffffffffffffffffffffffff02191690559055611c2f565b8080611c2790612e41565b9150506119ec565b507fd31b40d0e5dc0e720f13cdff5452df15cb4226cbbc509a4a141cb4c3e09bf14b823383604051611c6393929190612e89565b60405180910390a15050565b60606004805480602002602001604051908101604052809291908181526020016000905b82821015611f5f57838290600052602060002090600502016040518060a0016040529081600082018054611cc690612ef6565b80601f0160208091040260200160405190810160405280929190818152602001828054611cf290612ef6565b8015611d3f5780601f10611d1457610100808354040283529160200191611d3f565b820191906000526020600020905b815481529060010190602001808311611d2257829003601f168201915b50505050508152602001600182018054611d5890612ef6565b80601f0160208091040260200160405190810160405280929190818152602001828054611d8490612ef6565b8015611dd15780601f10611da657610100808354040283529160200191611dd1565b820191906000526020600020905b815481529060010190602001808311611db457829003601f168201915b50505050508152602001600282018054611dea90612ef6565b80601f0160208091040260200160405190810160405280929190818152602001828054611e1690612ef6565b8015611e635780601f10611e3857610100808354040283529160200191611e63565b820191906000526020600020905b815481529060010190602001808311611e4657829003601f168201915b505050505081526020016003820160009054906101000a900473ffffffffffffffffffffffffffffffffffffffff1673ffffffffffffffffffffffffffffffffffffffff1673ffffffffffffffffffffffffffffffffffffffff16815260200160048201805480602002602001604051908101604052809291908181526020018280548015611f4757602002820191906000526020600020905b8160009054906101000a900473ffffffffffffffffffffffffffffffffffffffff1673ffffffffffffffffffffffffffffffffffffffff1681526020019060010190808311611efd575b50505050508152505081526020019060010190611c93565b50505050905090565b828054611f7490612ef6565b90600052602060002090601f016020900481019282611f965760008555611fdd565b82601f10611faf57805160ff1916838001178555611fdd565b82800160010185558215611fdd579182015b82811115611fdc578251825591602001919060010190611fc1565b5b509050611fea91906121dc565b5090565b6040518060800160405280600073ffffffffffffffffffffffffffffffffffffffff16815260200160608152602001606081526020016000151581525090565b8280548282559060005260206000209081019282156120a7579160200282015b828111156120a65782518260006101000a81548173ffffffffffffffffffffffffffffffffffffffff021916908373ffffffffffffffffffffffffffffffffffffffff1602179055509160200191906001019061204e565b5b5090506120b491906121dc565b5090565b8280546120c490612ef6565b90600052602060002090601f0160209004810192826120e65760008555612134565b82601f106120f75780548555612134565b8280016001018555821561213457600052602060002091601f016020900482015b82811115612133578254825591600101919060010190612118565b5b50905061214191906121dc565b5090565b8280548282559060005260206000209081019282156121865760005260206000209182015b8281111561218557825482559160010191906001019061216a565b5b50905061219391906121dc565b5090565b6040518060a00160405280606081526020016060815260200160608152602001600073ffffffffffffffffffffffffffffffffffffffff168152602001606081525090565b5b808211156121f55760008160009055506001016121dd565b5090565b6000604051905090565b600080fd5b600080fd5b600080fd5b600080fd5b6000601f19601f8301169050919050565b7f4e487b7100000000000000000000000000000000000000000000000000000000600052604160045260246000fd5b61226082612217565b810181811067ffffffffffffffff8211171561227f5761227e612228565b5b80604052505050565b60006122926121f9565b905061229e8282612257565b919050565b600067ffffffffffffffff8211156122be576122bd612228565b5b6122c782612217565b9050602081019050919050565b82818337600083830152505050565b60006122f66122f1846122a3565b612288565b90508281526020810184848401111561231257612311612212565b5b61231d8482856122d4565b509392505050565b600082601f83011261233a5761233961220d565b5b813561234a8482602086016122e3565b91505092915050565b600073ffffffffffffffffffffffffffffffffffffffff82169050919050565b600061237e82612353565b9050919050565b61238e81612373565b811461239957600080fd5b50565b6000813590506123ab81612385565b92915050565b600080604083850312156123c8576123c7612203565b5b600083013567ffffffffffffffff8111156123e6576123e5612208565b5b6123f285828601612325565b92505060206124038582860161239c565b9150509250929050565b600081519050919050565b600082825260208201905092915050565b60005b8381101561244757808201518184015260208101905061242c565b83811115612456576000848401525b50505050565b60006124678261240d565b6124718185612418565b9350612481818560208601612429565b61248a81612217565b840191505092915050565b600060208201905081810360008301526124af818461245c565b905092915050565b6000602082840312156124cd576124cc612203565b5b600082013567ffffffffffffffff8111156124eb576124ea612208565b5b6124f784828501612325565b91505092915050565b60008115159050919050565b61251581612500565b811461252057600080fd5b50565b6000813590506125328161250c565b92915050565b60008060006060848603121561255157612550612203565b5b600084013567ffffffffffffffff81111561256f5761256e612208565b5b61257b86828701612325565b935050602084013567ffffffffffffffff81111561259c5761259b612208565b5b6125a886828701612325565b92505060406125b986828701612523565b9150509250925092565b6000602082840312156125d9576125d8612203565b5b60006125e78482850161239c565b91505092915050565b6125f981612373565b82525050565b600082825260208201905092915050565b600061261b8261240d565b61262581856125ff565b9350612635818560208601612429565b61263e81612217565b840191505092915050565b61265281612500565b82525050565b600060808301600083015161267060008601826125f0565b50602083015184820360208601526126888282612610565b915050604083015184820360408601526126a28282612610565b91505060608301516126b76060860182612649565b508091505092915050565b600060208201905081810360008301526126dc8184612658565b905092915050565b6000819050919050565b6126f7816126e4565b811461270257600080fd5b50565b600081359050612714816126ee565b92915050565b6000602082840312156127305761272f612203565b5b600061273e84828501612705565b91505092915050565b61275081612373565b82525050565b60006080820190508181036000830152612770818761245c565b90508181036020830152612784818661245c565b90508181036040830152612798818561245c565b90506127a76060830184612747565b95945050505050565b600081519050919050565b600082825260208201905092915050565b6000819050602082019050919050565b60006127e883836125f0565b60208301905092915050565b6000602082019050919050565b600061280c826127b0565b61281681856127bb565b9350612821836127cc565b8060005b8381101561285257815161283988826127dc565b9750612844836127f4565b925050600181019050612825565b5085935050505092915050565b600060208201905081810360008301526128798184612801565b905092915050565b60008060006060848603121561289a57612899612203565b5b600084013567ffffffffffffffff8111156128b8576128b7612208565b5b6128c486828701612325565b935050602084013567ffffffffffffffff8111156128e5576128e4612208565b5b6128f186828701612325565b925050604084013567ffffffffffffffff81111561291257612911612208565b5b61291e86828701612325565b9150509250925092565b600081519050919050565b600082825260208201905092915050565b6000819050602082019050919050565b600060808301600083015184820360008601526129718282612610565b915050602083015161298660208601826125f0565b50604083015161299960408601826125f0565b5060608301516129ac6060860182612649565b508091505092915050565b60006129c38383612954565b905092915050565b6000602082019050919050565b60006129e382612928565b6129ed8185612933565b9350836020820285016129ff85612944565b8060005b85811015612a3b5784840389528151612a1c85826129b7565b9450612a27836129cb565b925060208a01995050600181019050612a03565b50829750879550505050505092915050565b60006020820190508181036000830152612a6781846129d8565b905092915050565b612a7881612500565b82525050565b6000602082019050612a936000830184612a6f565b92915050565b600082825260208201905092915050565b6000612ab5826127b0565b612abf8185612a99565b9350612aca836127cc565b8060005b83811015612afb578151612ae288826127dc565b9750612aed836127f4565b925050600181019050612ace565b5085935050505092915050565b600060a0830160008301518482036000860152612b258282612610565b91505060208301518482036020860152612b3f8282612610565b91505060408301518482036040860152612b598282612610565b9150506060830151612b6e60608601826125f0565b5060808301518482036080860152612b868282612aaa565b9150508091505092915050565b60006020820190508181036000830152612bad8184612b08565b905092915050565b600081519050919050565b600082825260208201905092915050565b6000819050602082019050919050565b600060a0830160008301518482036000860152612bfe8282612610565b91505060208301518482036020860152612c188282612610565b91505060408301518482036040860152612c328282612610565b9150506060830151612c4760608601826125f0565b5060808301518482036080860152612c5f8282612aaa565b9150508091505092915050565b6000612c788383612be1565b905092915050565b6000602082019050919050565b6000612c9882612bb5565b612ca28185612bc0565b935083602082028501612cb485612bd1565b8060005b85811015612cf05784840389528151612cd18582612c6c565b9450612cdc83612c80565b925060208a01995050600181019050612cb8565b50829750879550505050505092915050565b60006020820190508181036000830152612d1c8184612c8d565b905092915050565b600081905092915050565b6000612d3a8261240d565b612d448185612d24565b9350612d54818560208601612429565b80840191505092915050565b6000612d6c8284612d2f565b915081905092915050565b7f55736572206e6f7420746865206c6177796572206f6620746865206361736500600082015250565b6000612dad601f83612418565b9150612db882612d77565b602082019050919050565b60006020820190508181036000830152612ddc81612da0565b9050919050565b7f4e487b7100000000000000000000000000000000000000000000000000000000600052603260045260246000fd5b7f4e487b7100000000000000000000000000000000000000000000000000000000600052601160045260246000fd5b6000612e4c826126e4565b91507fffffffffffffffffffffffffffffffffffffffffffffffffffffffffffffffff8203612e7e57612e7d612e12565b5b600182019050919050565b60006060820190508181036000830152612ea3818661245c565b9050612eb26020830185612747565b612ebf6040830184612747565b949350505050565b7f4e487b7100000000000000000000000000000000000000000000000000000000600052602260045260246000fd5b60006002820490506001821680612f0e57607f821691505b602082108103612f2157612f20612ec7565b5b50919050565b7f55736572206e6f74207265676973746572656400000000000000000000000000600082015250565b6000612f5d601383612418565b9150612f6882612f27565b602082019050919050565b60006020820190508181036000830152612f8c81612f50565b9050919050565b7f5573657220616c72656164792072656769737465726564000000000000000000600082015250565b6000612fc9601783612418565b9150612fd482612f93565b602082019050919050565b60006020820190508181036000830152612ff881612fbc565b9050919050565b60006060820190508181036000830152613019818661245c565b9050818103602083015261302d818561245c565b905061303c6040830184612a6f565b949350505050565b7f55736572206e6f742061206c6177796572000000000000000000000000000000600082015250565b600061307a601183612418565b915061308582613044565b602082019050919050565b600060208201905081810360008301526130a98161306d565b9050919050565b60006130bb826126e4565b91506130c6836126e4565b9250828210156130d9576130d8612e12565b5b828203905092915050565b7f4e487b7100000000000000000000000000000000000000000000000000000000600052603160045260246000fdfea2646970667358221220283436e391629d0028f61058031fbfe8ddb52e8812a16306365f9356086a2e8264736f6c634300080e0033",
  "immutableReferences": {},
  "source": "pragma solidity 0.8.14;\n\ncontract Evault{\n    string public name;\n    string public description;\n\n    constructor(\n        string memory _name,\n        string memory _description\n    ){\n        name = _name;\n        description = _description;\n    }\n\n    struct User{\n        address userAddress;\n        string name;\n        string email;\n        bool isLawyer;\n    }\n\n    mapping(address => bool) registered;\n\n    event UserRegistered(address indexed userAddress, string name, string email, bool isLawyer);\n\n    function registerUser(string memory _name, string memory _email, bool _isLawyer) public{\n        require(!registered[msg.sender], \"User already registered\");\n        registered[msg.sender] = true;\n        users[msg.sender] = User(msg.sender, _name, _email, _isLawyer);\n\n        emit UserRegistered(msg.sender, _name, _email, _isLawyer);\n    }\n\n    function getIsRegistered(address addr) public view returns(bool){\n        return registered[addr];\n    }\n\n    mapping(address => User) users;   \n\n    function getUser(address addr) public view returns(User memory){\n        return users[addr];\n    }\n\n    struct Case{\n        string caseId;\n        string name;\n        string description;\n        address lawyer;\n\n        address[] access;\n    }\n\n    struct ApprovalRequest{\n        string caseId;\n        address lawyer;\n        address client;\n        bool approved;\n    }\n\n    Case[] public allCases;\n\n    mapping(string => Case) cases;\n    mapping(string => ApprovalRequest[]) approvalRequests;\n\n    event CaseCreated(string caseId, string name, string description, address lawyer);\n\n    function createCase(string memory _caseId, string memory _name, string memory _description) public{\n        require(registered[msg.sender], \"User not registered\");\n        require(users[msg.sender].isLawyer, \"User not a lawyer\");\n\n        cases[_caseId] = Case(_caseId, _name, _description, msg.sender, new address[](0));\n        allCases.push(cases[_caseId]);\n\n        emit CaseCreated(_caseId, _name, _description, msg.sender);\n    }\n\n    function getCase(string memory _caseId) public view returns(Case memory){\n        return cases[_caseId];\n    }\n\n    function getAllCases() public view returns(Case[] memory){\n        return allCases;\n    }\n\n    function getCaseAccess(string memory _caseId) public view returns(address[] memory){\n        return cases[_caseId].access;\n    }\n\n    event ApprovalRequested(string caseId, address lawyer, address client);\n\n    function requestAccess(string memory _caseId) public{\n        require(registered[msg.sender], \"User not registered\");\n\n        approvalRequests[_caseId].push(ApprovalRequest(_caseId, cases[_caseId].lawyer, msg.sender, false));\n\n        emit ApprovalRequested(_caseId, cases[_caseId].lawyer, msg.sender);\n    }\n\n    event ApprovalAccepted(string caseId, address lawyer, address client);\n\n    function approveAccess(string memory _caseId, address _client) public{\n        require(cases[_caseId].lawyer == msg.sender, \"User not the lawyer of the case\");\n\n        for(uint i = 0; i < approvalRequests[_caseId].length; i++){\n            if(approvalRequests[_caseId][i].client == _client){\n                approvalRequests[_caseId][i].approved = true;\n                cases[_caseId].access.push(_client);\n                break;\n            }\n        }\n\n        emit ApprovalAccepted(_caseId, msg.sender, _client);\n    }\n\n    function getApprovalRequests(string memory _caseId) public view returns(ApprovalRequest[] memory){\n        return approvalRequests[_caseId];\n    }\n\n    event AccessRevoked(string caseId, address lawyer, address client);\n\n    function revokeAccess(string memory _caseId, address _client) public{\n        require(cases[_caseId].lawyer == msg.sender, \"User not the lawyer of the case\");\n\n        for(uint i = 0; i < cases[_caseId].access.length; i++){\n            if(cases[_caseId].access[i] == _client){\n                cases[_caseId].access[i] = cases[_caseId].access[cases[_caseId].access.length - 1];\n                cases[_caseId].access.pop();\n                break;\n            }\n        }\n\n        emit AccessRevoked(_caseId, msg.sender, _client);\n    }\n}",
  "sourcePath": "/home/aslam/proj/college/truffle/contracts/Evault.sol",
  "compiler": {
    "name": "solc",
    "version": "0.8.14+commit.80d49f37.Emscripten.clang"
  },
  "schemaVersion": "3.4.16",
  "updatedAt": "2024-05-06T06:19:42.791Z",
  "networkType": "ethereum",
  "devdoc": {
    "kind": "dev",
    "methods": {},
    "version": 1
  },
  "userdoc": {
    "kind": "user",
    "methods": {},
    "version": 1
  }
}