{
  "contractName": "Evault",
  "abi": [
    {
      "inputs": [
        {
          "internalType": "string",
          "name": "_name",
          "type": "string"
        },
        {
          "internalType": "string",
          "name": "_description",
          "type": "string"
        }
      ],
      "stateMutability": "nonpayable",
      "type": "constructor"
    },
    {
      "anonymous": false,
      "inputs": [
        {
          "indexed": false,
          "internalType": "string",
          "name": "caseId",
          "type": "string"
        },
        {
          "indexed": false,
          "internalType": "address",
          "name": "lawyer",
          "type": "address"
        },
        {
          "indexed": false,
          "internalType": "address",
          "name": "client",
          "type": "address"
        }
      ],
      "name": "AccessRevoked",
      "type": "event"
    },
    {
      "anonymous": false,
      "inputs": [
        {
          "indexed": false,
          "internalType": "string",
          "name": "caseId",
          "type": "string"
        },
        {
          "indexed": false,
          "internalType": "address",
          "name": "lawyer",
          "type": "address"
        },
        {
          "indexed": false,
          "internalType": "address",
          "name": "client",
          "type": "address"
        }
      ],
      "name": "ApprovalAccepted",
      "type": "event"
    },
    {
      "anonymous": false,
      "inputs": [
        {
          "indexed": false,
          "internalType": "string",
          "name": "caseId",
          "type": "string"
        },
        {
          "indexed": false,
          "internalType": "address",
          "name": "lawyer",
          "type": "address"
        },
        {
          "indexed": false,
          "internalType": "address",
          "name": "client",
          "type": "address"
        }
      ],
      "name": "ApprovalRequested",
      "type": "event"
    },
    {
      "anonymous": false,
      "inputs": [
        {
          "indexed": false,
          "internalType": "string",
          "name": "caseId",
          "type": "string"
        },
        {
          "indexed": false,
          "internalType": "string",
          "name": "name",
          "type": "string"
        },
        {
          "indexed": false,
          "internalType": "string",
          "name": "description",
          "type": "string"
        },
        {
          "indexed": false,
          "internalType": "address",
          "name": "lawyer",
          "type": "address"
        }
      ],
      "name": "CaseCreated",
      "type": "event"
    },
    {
      "anonymous": false,
      "inputs": [
        {
          "indexed": false,
          "internalType": "string",
          "name": "caseId",
          "type": "string"
        },
        {
          "indexed": false,
          "internalType": "string",
          "name": "name",
          "type": "string"
        },
        {
          "indexed": false,
          "internalType": "string",
          "name": "ipfsHash",
          "type": "string"
        },
        {
          "indexed": false,
          "internalType": "address",
          "name": "uploader",
          "type": "address"
        }
      ],
      "name": "FileUploaded",
      "type": "event"
    },
    {
      "anonymous": false,
      "inputs": [
        {
          "indexed": true,
          "internalType": "address",
          "name": "userAddress",
          "type": "address"
        },
        {
          "indexed": false,
          "internalType": "string",
          "name": "name",
          "type": "string"
        },
        {
          "indexed": false,
          "internalType": "string",
          "name": "email",
          "type": "string"
        },
        {
          "indexed": false,
          "internalType": "bool",
          "name": "isLawyer",
          "type": "bool"
        }
      ],
      "name": "UserRegistered",
      "type": "event"
    },
    {
      "inputs": [
        {
          "internalType": "uint256",
          "name": "",
          "type": "uint256"
        }
      ],
      "name": "allCaseIds",
      "outputs": [
        {
          "internalType": "string",
          "name": "",
          "type": "string"
        }
      ],
      "stateMutability": "view",
      "type": "function",
      "constant": true
    },
    {
      "inputs": [],
      "name": "description",
      "outputs": [
        {
          "internalType": "string",
          "name": "",
          "type": "string"
        }
      ],
      "stateMutability": "view",
      "type": "function",
      "constant": true
    },
    {
      "inputs": [],
      "name": "name",
      "outputs": [
        {
          "internalType": "string",
          "name": "",
          "type": "string"
        }
      ],
      "stateMutability": "view",
      "type": "function",
      "constant": true
    },
    {
      "inputs": [
        {
          "internalType": "string",
          "name": "_name",
          "type": "string"
        },
        {
          "internalType": "string",
          "name": "_email",
          "type": "string"
        },
        {
          "internalType": "bool",
          "name": "_isLawyer",
          "type": "bool"
        }
      ],
      "name": "registerUser",
      "outputs": [],
      "stateMutability": "nonpayable",
      "type": "function"
    },
    {
      "inputs": [
        {
          "internalType": "address",
          "name": "addr",
          "type": "address"
        }
      ],
      "name": "getIsRegistered",
      "outputs": [
        {
          "internalType": "bool",
          "name": "",
          "type": "bool"
        }
      ],
      "stateMutability": "view",
      "type": "function",
      "constant": true
    },
    {
      "inputs": [
        {
          "internalType": "address",
          "name": "addr",
          "type": "address"
        }
      ],
      "name": "getUser",
      "outputs": [
        {
          "components": [
            {
              "internalType": "address",
              "name": "userAddress",
              "type": "address"
            },
            {
              "internalType": "string",
              "name": "name",
              "type": "string"
            },
            {
              "internalType": "string",
              "name": "email",
              "type": "string"
            },
            {
              "internalType": "bool",
              "name": "isLawyer",
              "type": "bool"
            }
          ],
          "internalType": "struct Evault.User",
          "name": "",
          "type": "tuple"
        }
      ],
      "stateMutability": "view",
      "type": "function",
      "constant": true
    },
    {
      "inputs": [
        {
          "internalType": "string",
          "name": "_caseId",
          "type": "string"
        },
        {
          "internalType": "string",
          "name": "_name",
          "type": "string"
        },
        {
          "internalType": "string",
          "name": "_description",
          "type": "string"
        }
      ],
      "name": "createCase",
      "outputs": [],
      "stateMutability": "nonpayable",
      "type": "function"
    },
    {
      "inputs": [
        {
          "internalType": "string",
          "name": "_caseId",
          "type": "string"
        }
      ],
      "name": "getCase",
      "outputs": [
        {
          "components": [
            {
              "internalType": "string",
              "name": "caseId",
              "type": "string"
            },
            {
              "internalType": "string",
              "name": "name",
              "type": "string"
            },
            {
              "internalType": "string",
              "name": "description",
              "type": "string"
            },
            {
              "internalType": "address",
              "name": "lawyer",
              "type": "address"
            },
            {
              "internalType": "address[]",
              "name": "access",
              "type": "address[]"
            }
          ],
          "internalType": "struct Evault.Case",
          "name": "",
          "type": "tuple"
        }
      ],
      "stateMutability": "view",
      "type": "function",
      "constant": true
    },
    {
      "inputs": [],
      "name": "getAllCases",
      "outputs": [
        {
          "components": [
            {
              "internalType": "string",
              "name": "caseId",
              "type": "string"
            },
            {
              "internalType": "string",
              "name": "name",
              "type": "string"
            },
            {
              "internalType": "string",
              "name": "description",
              "type": "string"
            },
            {
              "internalType": "address",
              "name": "lawyer",
              "type": "address"
            },
            {
              "internalType": "address[]",
              "name": "access",
              "type": "address[]"
            }
          ],
          "internalType": "struct Evault.Case[]",
          "name": "",
          "type": "tuple[]"
        }
      ],
      "stateMutability": "view",
      "type": "function",
      "constant": true
    },
    {
      "inputs": [
        {
          "internalType": "string",
          "name": "_caseId",
          "type": "string"
        }
      ],
      "name": "getCaseAccess",
      "outputs": [
        {
          "internalType": "address[]",
          "name": "",
          "type": "address[]"
        }
      ],
      "stateMutability": "view",
      "type": "function",
      "constant": true
    },
    {
      "inputs": [
        {
          "internalType": "string",
          "name": "_caseId",
          "type": "string"
        }
      ],
      "name": "requestAccess",
      "outputs": [],
      "stateMutability": "nonpayable",
      "type": "function"
    },
    {
      "inputs": [
        {
          "internalType": "string",
          "name": "_caseId",
          "type": "string"
        },
        {
          "internalType": "address",
          "name": "_client",
          "type": "address"
        }
      ],
      "name": "approveAccess",
      "outputs": [],
      "stateMutability": "nonpayable",
      "type": "function"
    },
    {
      "inputs": [
        {
          "internalType": "string",
          "name": "_caseId",
          "type": "string"
        }
      ],
      "name": "getApprovalRequests",
      "outputs": [
        {
          "components": [
            {
              "internalType": "string",
              "name": "caseId",
              "type": "string"
            },
            {
              "internalType": "address",
              "name": "lawyer",
              "type": "address"
            },
            {
              "internalType": "address",
              "name": "client",
              "type": "address"
            },
            {
              "internalType": "bool",
              "name": "approved",
              "type": "bool"
            }
          ],
          "internalType": "struct Evault.ApprovalRequest[]",
          "name": "",
          "type": "tuple[]"
        }
      ],
      "stateMutability": "view",
      "type": "function",
      "constant": true
    },
    {
      "inputs": [
        {
          "internalType": "string",
          "name": "_caseId",
          "type": "string"
        },
        {
          "internalType": "address",
          "name": "_client",
          "type": "address"
        }
      ],
      "name": "revokeAccess",
      "outputs": [],
      "stateMutability": "nonpayable",
      "type": "function"
    },
    {
      "inputs": [
        {
          "internalType": "string",
          "name": "_caseId",
          "type": "string"
        }
      ],
      "name": "getUsersWithAccess",
      "outputs": [
        {
          "components": [
            {
              "internalType": "address",
              "name": "userAddress",
              "type": "address"
            },
            {
              "internalType": "string",
              "name": "name",
              "type": "string"
            },
            {
              "internalType": "string",
              "name": "email",
              "type": "string"
            },
            {
              "internalType": "bool",
              "name": "isLawyer",
              "type": "bool"
            }
          ],
          "internalType": "struct Evault.User[]",
          "name": "",
          "type": "tuple[]"
        }
      ],
      "stateMutability": "view",
      "type": "function",
      "constant": true
    },
    {
      "inputs": [
        {
          "internalType": "string",
          "name": "_caseId",
          "type": "string"
        },
        {
          "internalType": "string",
          "name": "_name",
          "type": "string"
        },
        {
          "internalType": "string",
          "name": "_ipfsHash",
          "type": "string"
        }
      ],
      "name": "uploadFile",
      "outputs": [],
      "stateMutability": "nonpayable",
      "type": "function"
    },
    {
      "inputs": [
        {
          "internalType": "string",
          "name": "_caseId",
          "type": "string"
        }
      ],
      "name": "getCaseFiles",
      "outputs": [
        {
          "components": [
            {
              "internalType": "string",
              "name": "name",
              "type": "string"
            },
            {
              "internalType": "string",
              "name": "ipfsHash",
              "type": "string"
            },
            {
              "internalType": "address",
              "name": "uploader",
              "type": "address"
            }
          ],
          "internalType": "struct Evault.CaseFile[]",
          "name": "",
          "type": "tuple[]"
        }
      ],
      "stateMutability": "view",
      "type": "function",
      "constant": true
    }
  ],
  "bytecode": "0x60806040523480156200001157600080fd5b50604051620043a3380380620043a38339818101604052810190620000379190620002be565b81600090805190602001906200004f92919062000071565b5080600190805190602001906200006892919062000071565b505050620003a7565b8280546200007f9062000372565b90600052602060002090601f016020900481019282620000a35760008555620000ef565b82601f10620000be57805160ff1916838001178555620000ef565b82800160010185558215620000ef579182015b82811115620000ee578251825591602001919060010190620000d1565b5b509050620000fe919062000102565b5090565b5b808211156200011d57600081600090555060010162000103565b5090565b6000604051905090565b600080fd5b600080fd5b600080fd5b600080fd5b6000601f19601f8301169050919050565b7f4e487b7100000000000000000000000000000000000000000000000000000000600052604160045260246000fd5b6200018a826200013f565b810181811067ffffffffffffffff82111715620001ac57620001ab62000150565b5b80604052505050565b6000620001c162000121565b9050620001cf82826200017f565b919050565b600067ffffffffffffffff821115620001f257620001f162000150565b5b620001fd826200013f565b9050602081019050919050565b60005b838110156200022a5780820151818401526020810190506200020d565b838111156200023a576000848401525b50505050565b6000620002576200025184620001d4565b620001b5565b9050828152602081018484840111156200027657620002756200013a565b5b620002838482856200020a565b509392505050565b600082601f830112620002a357620002a262000135565b5b8151620002b584826020860162000240565b91505092915050565b60008060408385031215620002d857620002d76200012b565b5b600083015167ffffffffffffffff811115620002f957620002f862000130565b5b62000307858286016200028b565b925050602083015167ffffffffffffffff8111156200032b576200032a62000130565b5b62000339858286016200028b565b9150509250929050565b7f4e487b7100000000000000000000000000000000000000000000000000000000600052602260045260246000fd5b600060028204905060018216806200038b57607f821691505b602082108103620003a157620003a062000343565b5b50919050565b613fec80620003b76000396000f3fe608060405234801561001057600080fd5b506004361061010b5760003560e01c806389e4caf4116100a2578063b2accdaa11610071578063b2accdaa146102c8578063b5611129146102f8578063d4e0682614610328578063dfe0b5fe14610358578063fb40c22a146103745761010b565b806389e4caf41461023057806392bb481a146102605780639d5061f91461027c578063a35ac841146102985761010b565b80631c7a4dd0116100de5780631c7a4dd0146101825780636f77926b146101b25780637284e416146101e25780638038cf54146102005761010b565b8063019971aa1461011057806306fdde031461012c57806310ee1b221461014a578063181f51c614610166575b600080fd5b61012a60048036038101906101259190612e8e565b610392565b005b610134610635565b6040516101419190612f72565b60405180910390f35b610164600480360381019061015f9190612f94565b6106c3565b005b610180600480360381019061017b9190613015565b610ccc565b005b61019c600480360381019061019791906130d6565b610f24565b6040516101a99190612f72565b60405180910390f35b6101cc60048036038101906101c79190613103565b610fd0565b6040516101d99190613202565b60405180910390f35b6101ea6111be565b6040516101f79190612f72565b60405180910390f35b61021a60048036038101906102159190612f94565b61124c565b60405161022791906132d3565b60405180910390f35b61024a60048036038101906102459190612f94565b6112fb565b6040516102579190613421565b60405180910390f35b61027a60048036038101906102759190613443565b611641565b005b61029660048036038101906102919190613443565b611928565b005b6102b260048036038101906102ad9190612f94565b611ca5565b6040516102bf9190613603565b60405180910390f35b6102e260048036038101906102dd9190612f94565b611e9c565b6040516102ef919061374a565b60405180910390f35b610312600480360381019061030d9190613103565b612072565b60405161031f919061377b565b60405180910390f35b610342600480360381019061033d9190612f94565b6120c8565b60405161034f9190613890565b60405180910390f35b610372600480360381019061036d9190612e8e565b61239a565b005b61037c6126cf565b60405161038991906139ff565b60405180910390f35b3373ffffffffffffffffffffffffffffffffffffffff166006836040516103b99190613a5d565b908152602001604051809103902060030160009054906101000a900473ffffffffffffffffffffffffffffffffffffffff1673ffffffffffffffffffffffffffffffffffffffff1614610441576040517f08c379a000000000000000000000000000000000000000000000000000000000815260040161043890613ac0565b60405180910390fd5b60005b6007836040516104549190613a5d565b9081526020016040518091039020805490508110156105f5578173ffffffffffffffffffffffffffffffffffffffff166007846040516104949190613a5d565b908152602001604051809103902082815481106104b4576104b3613ae0565b5b906000526020600020906003020160020160009054906101000a900473ffffffffffffffffffffffffffffffffffffffff1673ffffffffffffffffffffffffffffffffffffffff16036105e25760016007846040516105139190613a5d565b9081526020016040518091039020828154811061053357610532613ae0565b5b906000526020600020906003020160020160146101000a81548160ff02191690831515021790555060068360405161056b9190613a5d565b9081526020016040518091039020600401829080600181540180825580915050600190039060005260206000200160009091909190916101000a81548173ffffffffffffffffffffffffffffffffffffffff021916908373ffffffffffffffffffffffffffffffffffffffff1602179055506105f5565b80806105ed90613b3e565b915050610444565b507fcf3e6736329e80255f2b3765e818d8f45a2118c1000f3edec0b742477205339c82338360405161062993929190613b95565b60405180910390a15050565b6000805461064290613c02565b80601f016020809104026020016040519081016040528092919081815260200182805461066e90613c02565b80156106bb5780601f10610690576101008083540402835291602001916106bb565b820191906000526020600020905b81548152906001019060200180831161069e57829003601f168201915b505050505081565b600260003373ffffffffffffffffffffffffffffffffffffffff1673ffffffffffffffffffffffffffffffffffffffff16815260200190815260200160002060009054906101000a900460ff1661074f576040517f08c379a000000000000000000000000000000000000000000000000000000000815260040161074690613c7f565b60405180910390fd5b60005b6007826040516107629190613a5d565b908152602001604051809103902080549050811015610aa7573373ffffffffffffffffffffffffffffffffffffffff166007836040516107a29190613a5d565b908152602001604051809103902082815481106107c2576107c1613ae0565b5b906000526020600020906003020160020160009054906101000a900473ffffffffffffffffffffffffffffffffffffffff1673ffffffffffffffffffffffffffffffffffffffff1603610a945760078260405161081f9190613a5d565b9081526020016040518091039020600160078460405161083f9190613a5d565b90815260200160405180910390208054905061085b9190613c9f565b8154811061086c5761086b613ae0565b5b906000526020600020906003020160078360405161088a9190613a5d565b908152602001604051809103902082815481106108aa576108a9613ae0565b5b906000526020600020906003020160008201816000019080546108cc90613c02565b6108d7929190612a57565b506001820160009054906101000a900473ffffffffffffffffffffffffffffffffffffffff168160010160006101000a81548173ffffffffffffffffffffffffffffffffffffffff021916908373ffffffffffffffffffffffffffffffffffffffff1602179055506002820160009054906101000a900473ffffffffffffffffffffffffffffffffffffffff168160020160006101000a81548173ffffffffffffffffffffffffffffffffffffffff021916908373ffffffffffffffffffffffffffffffffffffffff1602179055506002820160149054906101000a900460ff168160020160146101000a81548160ff0219169083151502179055509050506007826040516109e69190613a5d565b9081526020016040518091039020805480610a0457610a03613cd3565b5b600190038181906000526020600020906003020160008082016000610a299190612ae4565b6001820160006101000a81549073ffffffffffffffffffffffffffffffffffffffff02191690556002820160006101000a81549073ffffffffffffffffffffffffffffffffffffffff02191690556002820160146101000a81549060ff021916905550509055610aa7565b8080610a9f90613b3e565b915050610752565b50600781604051610ab89190613a5d565b90815260200160405180910390206040518060800160405280838152602001600684604051610ae79190613a5d565b908152602001604051809103902060030160009054906101000a900473ffffffffffffffffffffffffffffffffffffffff1673ffffffffffffffffffffffffffffffffffffffff1681526020013373ffffffffffffffffffffffffffffffffffffffff1681526020016000151581525090806001815401808255809150506001900390600052602060002090600302016000909190919091506000820151816000019080519060200190610b9c929190612b24565b5060208201518160010160006101000a81548173ffffffffffffffffffffffffffffffffffffffff021916908373ffffffffffffffffffffffffffffffffffffffff16021790555060408201518160020160006101000a81548173ffffffffffffffffffffffffffffffffffffffff021916908373ffffffffffffffffffffffffffffffffffffffff16021790555060608201518160020160146101000a81548160ff02191690831515021790555050507fbf8d26c6544523ca8cbee7acc683dd14f204dab191152eec87b17750273b516481600683604051610c7f9190613a5d565b908152602001604051809103902060030160009054906101000a900473ffffffffffffffffffffffffffffffffffffffff1633604051610cc193929190613b95565b60405180910390a150565b600260003373ffffffffffffffffffffffffffffffffffffffff1673ffffffffffffffffffffffffffffffffffffffff16815260200190815260200160002060009054906101000a900460ff1615610d59576040517f08c379a0000000000000000000000000000000000000000000000000000000008152600401610d5090613d4e565b60405180910390fd5b6001600260003373ffffffffffffffffffffffffffffffffffffffff1673ffffffffffffffffffffffffffffffffffffffff16815260200190815260200160002060006101000a81548160ff02191690831515021790555060405180608001604052803373ffffffffffffffffffffffffffffffffffffffff168152602001848152602001838152602001821515815250600360003373ffffffffffffffffffffffffffffffffffffffff1673ffffffffffffffffffffffffffffffffffffffff16815260200190815260200160002060008201518160000160006101000a81548173ffffffffffffffffffffffffffffffffffffffff021916908373ffffffffffffffffffffffffffffffffffffffff1602179055506020820151816001019080519060200190610e8c929190612b24565b506040820151816002019080519060200190610ea9929190612b24565b5060608201518160030160006101000a81548160ff0219169083151502179055509050503373ffffffffffffffffffffffffffffffffffffffff167fd1f005bda6f032608782b72061b075bc80a64f2b8720195c85f763dbe02c8b86848484604051610f1793929190613d6e565b60405180910390a2505050565b60058181548110610f3457600080fd5b906000526020600020016000915090508054610f4f90613c02565b80601f0160208091040260200160405190810160405280929190818152602001828054610f7b90613c02565b8015610fc85780601f10610f9d57610100808354040283529160200191610fc8565b820191906000526020600020905b815481529060010190602001808311610fab57829003601f168201915b505050505081565b610fd8612baa565b600360008373ffffffffffffffffffffffffffffffffffffffff1673ffffffffffffffffffffffffffffffffffffffff1681526020019081526020016000206040518060800160405290816000820160009054906101000a900473ffffffffffffffffffffffffffffffffffffffff1673ffffffffffffffffffffffffffffffffffffffff1673ffffffffffffffffffffffffffffffffffffffff16815260200160018201805461108890613c02565b80601f01602080910402602001604051908101604052809291908181526020018280546110b490613c02565b80156111015780601f106110d657610100808354040283529160200191611101565b820191906000526020600020905b8154815290600101906020018083116110e457829003601f168201915b5050505050815260200160028201805461111a90613c02565b80601f016020809104026020016040519081016040528092919081815260200182805461114690613c02565b80156111935780601f1061116857610100808354040283529160200191611193565b820191906000526020600020905b81548152906001019060200180831161117657829003601f168201915b505050505081526020016003820160009054906101000a900460ff1615151515815250509050919050565b600180546111cb90613c02565b80601f01602080910402602001604051908101604052809291908181526020018280546111f790613c02565b80156112445780601f1061121957610100808354040283529160200191611244565b820191906000526020600020905b81548152906001019060200180831161122757829003601f168201915b505050505081565b606060068260405161125e9190613a5d565b90815260200160405180910390206004018054806020026020016040519081016040528092919081815260200182805480156112ef57602002820191906000526020600020905b8160009054906101000a900473ffffffffffffffffffffffffffffffffffffffff1673ffffffffffffffffffffffffffffffffffffffff16815260200190600101908083116112a5575b50505050509050919050565b6060600060068360405161130f9190613a5d565b90815260200160405180910390206004018054806020026020016040519081016040528092919081815260200182805480156113a057602002820191906000526020600020905b8160009054906101000a900473ffffffffffffffffffffffffffffffffffffffff1673ffffffffffffffffffffffffffffffffffffffff1681526020019060010190808311611356575b505050505090506000815167ffffffffffffffff8111156113c4576113c3612d05565b5b6040519080825280602002602001820160405280156113fd57816020015b6113ea612baa565b8152602001906001900390816113e25790505b50905060005b8251811015611636576003600084838151811061142357611422613ae0565b5b602002602001015173ffffffffffffffffffffffffffffffffffffffff1673ffffffffffffffffffffffffffffffffffffffff1681526020019081526020016000206040518060800160405290816000820160009054906101000a900473ffffffffffffffffffffffffffffffffffffffff1673ffffffffffffffffffffffffffffffffffffffff1673ffffffffffffffffffffffffffffffffffffffff1681526020016001820180546114d690613c02565b80601f016020809104026020016040519081016040528092919081815260200182805461150290613c02565b801561154f5780601f106115245761010080835404028352916020019161154f565b820191906000526020600020905b81548152906001019060200180831161153257829003601f168201915b5050505050815260200160028201805461156890613c02565b80601f016020809104026020016040519081016040528092919081815260200182805461159490613c02565b80156115e15780601f106115b6576101008083540402835291602001916115e1565b820191906000526020600020905b8154815290600101906020018083116115c457829003601f168201915b505050505081526020016003820160009054906101000a900460ff16151515158152505082828151811061161857611617613ae0565b5b6020026020010181905250808061162e90613b3e565b915050611403565b508092505050919050565b600260003373ffffffffffffffffffffffffffffffffffffffff1673ffffffffffffffffffffffffffffffffffffffff16815260200190815260200160002060009054906101000a900460ff166116cd576040517f08c379a00000000000000000000000000000000000000000000000000000000081526004016116c490613c7f565b60405180910390fd5b6000805b6006856040516116e19190613a5d565b9081526020016040518091039020600401805490508110156117a9573373ffffffffffffffffffffffffffffffffffffffff166006866040516117249190613a5d565b9081526020016040518091039020600401828154811061174757611746613ae0565b5b9060005260206000200160009054906101000a900473ffffffffffffffffffffffffffffffffffffffff1673ffffffffffffffffffffffffffffffffffffffff160361179657600191506117a9565b80806117a190613b3e565b9150506116d1565b50806117ea576040517f08c379a00000000000000000000000000000000000000000000000000000000081526004016117e190613e25565b60405180910390fd5b6004846040516117fa9190613a5d565b908152602001604051809103902060405180606001604052808581526020018481526020013373ffffffffffffffffffffffffffffffffffffffff168152509080600181540180825580915050600190039060005260206000209060030201600090919091909150600082015181600001908051906020019061187e929190612b24565b50602082015181600101908051906020019061189b929190612b24565b5060408201518160020160006101000a81548173ffffffffffffffffffffffffffffffffffffffff021916908373ffffffffffffffffffffffffffffffffffffffff16021790555050507f96683af57013b7188b5b5c6a8efac267e419b9b9bd118a3834d2eb04c98314448484843360405161191a9493929190613e45565b60405180910390a150505050565b600260003373ffffffffffffffffffffffffffffffffffffffff1673ffffffffffffffffffffffffffffffffffffffff16815260200190815260200160002060009054906101000a900460ff166119b4576040517f08c379a00000000000000000000000000000000000000000000000000000000081526004016119ab90613c7f565b60405180910390fd5b600360003373ffffffffffffffffffffffffffffffffffffffff1673ffffffffffffffffffffffffffffffffffffffff16815260200190815260200160002060030160009054906101000a900460ff16611a43576040517f08c379a0000000000000000000000000000000000000000000000000000000008152600401611a3a90613eeb565b60405180910390fd5b6040518060a001604052808481526020018381526020018281526020013373ffffffffffffffffffffffffffffffffffffffff168152602001600067ffffffffffffffff811115611a9757611a96612d05565b5b604051908082528060200260200182016040528015611ac55781602001602082028036833780820191505090505b50815250600684604051611ad99190613a5d565b90815260200160405180910390206000820151816000019080519060200190611b03929190612b24565b506020820151816001019080519060200190611b20929190612b24565b506040820151816002019080519060200190611b3d929190612b24565b5060608201518160030160006101000a81548173ffffffffffffffffffffffffffffffffffffffff021916908373ffffffffffffffffffffffffffffffffffffffff1602179055506080820151816004019080519060200190611ba1929190612bea565b50905050600683604051611bb59190613a5d565b9081526020016040518091039020600401339080600181540180825580915050600190039060005260206000200160009091909190916101000a81548173ffffffffffffffffffffffffffffffffffffffff021916908373ffffffffffffffffffffffffffffffffffffffff160217905550600583908060018154018082558091505060019003906000526020600020016000909190919091509080519060200190611c62929190612b24565b507f3635bb6d5d03105cee123726ce423f512b98f636243d8fdfbbaa9edcc6ee4ace83838333604051611c989493929190613e45565b60405180910390a1505050565b6060600482604051611cb79190613a5d565b9081526020016040518091039020805480602002602001604051908101604052809291908181526020016000905b82821015611e915783829060005260206000209060030201604051806060016040529081600082018054611d1890613c02565b80601f0160208091040260200160405190810160405280929190818152602001828054611d4490613c02565b8015611d915780601f10611d6657610100808354040283529160200191611d91565b820191906000526020600020905b815481529060010190602001808311611d7457829003601f168201915b50505050508152602001600182018054611daa90613c02565b80601f0160208091040260200160405190810160405280929190818152602001828054611dd690613c02565b8015611e235780601f10611df857610100808354040283529160200191611e23565b820191906000526020600020905b815481529060010190602001808311611e0657829003601f168201915b505050505081526020016002820160009054906101000a900473ffffffffffffffffffffffffffffffffffffffff1673ffffffffffffffffffffffffffffffffffffffff1673ffffffffffffffffffffffffffffffffffffffff168152505081526020019060010190611ce5565b505050509050919050565b6060600782604051611eae9190613a5d565b9081526020016040518091039020805480602002602001604051908101604052809291908181526020016000905b828210156120675783829060005260206000209060030201604051806080016040529081600082018054611f0f90613c02565b80601f0160208091040260200160405190810160405280929190818152602001828054611f3b90613c02565b8015611f885780601f10611f5d57610100808354040283529160200191611f88565b820191906000526020600020905b815481529060010190602001808311611f6b57829003601f168201915b505050505081526020016001820160009054906101000a900473ffffffffffffffffffffffffffffffffffffffff1673ffffffffffffffffffffffffffffffffffffffff1673ffffffffffffffffffffffffffffffffffffffff1681526020016002820160009054906101000a900473ffffffffffffffffffffffffffffffffffffffff1673ffffffffffffffffffffffffffffffffffffffff1673ffffffffffffffffffffffffffffffffffffffff1681526020016002820160149054906101000a900460ff16151515158152505081526020019060010190611edc565b505050509050919050565b6000600260008373ffffffffffffffffffffffffffffffffffffffff1673ffffffffffffffffffffffffffffffffffffffff16815260200190815260200160002060009054906101000a900460ff169050919050565b6120d0612c74565b6006826040516120e09190613a5d565b90815260200160405180910390206040518060a001604052908160008201805461210990613c02565b80601f016020809104026020016040519081016040528092919081815260200182805461213590613c02565b80156121825780601f1061215757610100808354040283529160200191612182565b820191906000526020600020905b81548152906001019060200180831161216557829003601f168201915b5050505050815260200160018201805461219b90613c02565b80601f01602080910402602001604051908101604052809291908181526020018280546121c790613c02565b80156122145780601f106121e957610100808354040283529160200191612214565b820191906000526020600020905b8154815290600101906020018083116121f757829003601f168201915b5050505050815260200160028201805461222d90613c02565b80601f016020809104026020016040519081016040528092919081815260200182805461225990613c02565b80156122a65780601f1061227b576101008083540402835291602001916122a6565b820191906000526020600020905b81548152906001019060200180831161228957829003601f168201915b505050505081526020016003820160009054906101000a900473ffffffffffffffffffffffffffffffffffffffff1673ffffffffffffffffffffffffffffffffffffffff1673ffffffffffffffffffffffffffffffffffffffff1681526020016004820180548060200260200160405190810160405280929190818152602001828054801561238a57602002820191906000526020600020905b8160009054906101000a900473ffffffffffffffffffffffffffffffffffffffff1673ffffffffffffffffffffffffffffffffffffffff1681526020019060010190808311612340575b5050505050815250509050919050565b3373ffffffffffffffffffffffffffffffffffffffff166006836040516123c19190613a5d565b908152602001604051809103902060030160009054906101000a900473ffffffffffffffffffffffffffffffffffffffff1673ffffffffffffffffffffffffffffffffffffffff1614612449576040517f08c379a000000000000000000000000000000000000000000000000000000000815260040161244090613ac0565b60405180910390fd5b60005b60068360405161245c9190613a5d565b90815260200160405180910390206004018054905081101561268f578173ffffffffffffffffffffffffffffffffffffffff1660068460405161249f9190613a5d565b908152602001604051809103902060040182815481106124c2576124c1613ae0565b5b9060005260206000200160009054906101000a900473ffffffffffffffffffffffffffffffffffffffff1673ffffffffffffffffffffffffffffffffffffffff160361267c576006836040516125189190613a5d565b9081526020016040518091039020600401600160068560405161253b9190613a5d565b90815260200160405180910390206004018054905061255a9190613c9f565b8154811061256b5761256a613ae0565b5b9060005260206000200160009054906101000a900473ffffffffffffffffffffffffffffffffffffffff166006846040516125a69190613a5d565b908152602001604051809103902060040182815481106125c9576125c8613ae0565b5b9060005260206000200160006101000a81548173ffffffffffffffffffffffffffffffffffffffff021916908373ffffffffffffffffffffffffffffffffffffffff1602179055506006836040516126219190613a5d565b908152602001604051809103902060040180548061264257612641613cd3565b5b6001900381819060005260206000200160006101000a81549073ffffffffffffffffffffffffffffffffffffffff0219169055905561268f565b808061268790613b3e565b91505061244c565b507fd31b40d0e5dc0e720f13cdff5452df15cb4226cbbc509a4a141cb4c3e09bf14b8233836040516126c393929190613b95565b60405180910390a15050565b6060600060058054905067ffffffffffffffff8111156126f2576126f1612d05565b5b60405190808252806020026020018201604052801561272b57816020015b612718612c74565b8152602001906001900390816127105790505b50905060005b600580549050811015612a4f5760066005828154811061275457612753613ae0565b5b9060005260206000200160405161276b9190613f9f565b90815260200160405180910390206040518060a001604052908160008201805461279490613c02565b80601f01602080910402602001604051908101604052809291908181526020018280546127c090613c02565b801561280d5780601f106127e25761010080835404028352916020019161280d565b820191906000526020600020905b8154815290600101906020018083116127f057829003601f168201915b5050505050815260200160018201805461282690613c02565b80601f016020809104026020016040519081016040528092919081815260200182805461285290613c02565b801561289f5780601f106128745761010080835404028352916020019161289f565b820191906000526020600020905b81548152906001019060200180831161288257829003601f168201915b505050505081526020016002820180546128b890613c02565b80601f01602080910402602001604051908101604052809291908181526020018280546128e490613c02565b80156129315780601f1061290657610100808354040283529160200191612931565b820191906000526020600020905b81548152906001019060200180831161291457829003601f168201915b505050505081526020016003820160009054906101000a900473ffffffffffffffffffffffffffffffffffffffff1673ffffffffffffffffffffffffffffffffffffffff1673ffffffffffffffffffffffffffffffffffffffff16815260200160048201805480602002602001604051908101604052809291908181526020018280548015612a1557602002820191906000526020600020905b8160009054906101000a900473ffffffffffffffffffffffffffffffffffffffff1673ffffffffffffffffffffffffffffffffffffffff16815260200190600101908083116129cb575b505050505081525050828281518110612a3157612a30613ae0565b5b60200260200101819052508080612a4790613b3e565b915050612731565b508091505090565b828054612a6390613c02565b90600052602060002090601f016020900481019282612a855760008555612ad3565b82601f10612a965780548555612ad3565b82800160010185558215612ad357600052602060002091601f016020900482015b82811115612ad2578254825591600101919060010190612ab7565b5b509050612ae09190612cb9565b5090565b508054612af090613c02565b6000825580601f10612b025750612b21565b601f016020900490600052602060002090810190612b209190612cb9565b5b50565b828054612b3090613c02565b90600052602060002090601f016020900481019282612b525760008555612b99565b82601f10612b6b57805160ff1916838001178555612b99565b82800160010185558215612b99579182015b82811115612b98578251825591602001919060010190612b7d565b5b509050612ba69190612cb9565b5090565b6040518060800160405280600073ffffffffffffffffffffffffffffffffffffffff16815260200160608152602001606081526020016000151581525090565b828054828255906000526020600020908101928215612c63579160200282015b82811115612c625782518260006101000a81548173ffffffffffffffffffffffffffffffffffffffff021916908373ffffffffffffffffffffffffffffffffffffffff16021790555091602001919060010190612c0a565b5b509050612c709190612cb9565b5090565b6040518060a00160405280606081526020016060815260200160608152602001600073ffffffffffffffffffffffffffffffffffffffff168152602001606081525090565b5b80821115612cd2576000816000905550600101612cba565b5090565b6000604051905090565b600080fd5b600080fd5b600080fd5b600080fd5b6000601f19601f8301169050919050565b7f4e487b7100000000000000000000000000000000000000000000000000000000600052604160045260246000fd5b612d3d82612cf4565b810181811067ffffffffffffffff82111715612d5c57612d5b612d05565b5b80604052505050565b6000612d6f612cd6565b9050612d7b8282612d34565b919050565b600067ffffffffffffffff821115612d9b57612d9a612d05565b5b612da482612cf4565b9050602081019050919050565b82818337600083830152505050565b6000612dd3612dce84612d80565b612d65565b905082815260208101848484011115612def57612dee612cef565b5b612dfa848285612db1565b509392505050565b600082601f830112612e1757612e16612cea565b5b8135612e27848260208601612dc0565b91505092915050565b600073ffffffffffffffffffffffffffffffffffffffff82169050919050565b6000612e5b82612e30565b9050919050565b612e6b81612e50565b8114612e7657600080fd5b50565b600081359050612e8881612e62565b92915050565b60008060408385031215612ea557612ea4612ce0565b5b600083013567ffffffffffffffff811115612ec357612ec2612ce5565b5b612ecf85828601612e02565b9250506020612ee085828601612e79565b9150509250929050565b600081519050919050565b600082825260208201905092915050565b60005b83811015612f24578082015181840152602081019050612f09565b83811115612f33576000848401525b50505050565b6000612f4482612eea565b612f4e8185612ef5565b9350612f5e818560208601612f06565b612f6781612cf4565b840191505092915050565b60006020820190508181036000830152612f8c8184612f39565b905092915050565b600060208284031215612faa57612fa9612ce0565b5b600082013567ffffffffffffffff811115612fc857612fc7612ce5565b5b612fd484828501612e02565b91505092915050565b60008115159050919050565b612ff281612fdd565b8114612ffd57600080fd5b50565b60008135905061300f81612fe9565b92915050565b60008060006060848603121561302e5761302d612ce0565b5b600084013567ffffffffffffffff81111561304c5761304b612ce5565b5b61305886828701612e02565b935050602084013567ffffffffffffffff81111561307957613078612ce5565b5b61308586828701612e02565b925050604061309686828701613000565b9150509250925092565b6000819050919050565b6130b3816130a0565b81146130be57600080fd5b50565b6000813590506130d0816130aa565b92915050565b6000602082840312156130ec576130eb612ce0565b5b60006130fa848285016130c1565b91505092915050565b60006020828403121561311957613118612ce0565b5b600061312784828501612e79565b91505092915050565b61313981612e50565b82525050565b600082825260208201905092915050565b600061315b82612eea565b613165818561313f565b9350613175818560208601612f06565b61317e81612cf4565b840191505092915050565b61319281612fdd565b82525050565b60006080830160008301516131b06000860182613130565b50602083015184820360208601526131c88282613150565b915050604083015184820360408601526131e28282613150565b91505060608301516131f76060860182613189565b508091505092915050565b6000602082019050818103600083015261321c8184613198565b905092915050565b600081519050919050565b600082825260208201905092915050565b6000819050602082019050919050565b600061325c8383613130565b60208301905092915050565b6000602082019050919050565b600061328082613224565b61328a818561322f565b935061329583613240565b8060005b838110156132c65781516132ad8882613250565b97506132b883613268565b925050600181019050613299565b5085935050505092915050565b600060208201905081810360008301526132ed8184613275565b905092915050565b600081519050919050565b600082825260208201905092915050565b6000819050602082019050919050565b60006080830160008301516133396000860182613130565b50602083015184820360208601526133518282613150565b9150506040830151848203604086015261336b8282613150565b91505060608301516133806060860182613189565b508091505092915050565b60006133978383613321565b905092915050565b6000602082019050919050565b60006133b7826132f5565b6133c18185613300565b9350836020820285016133d385613311565b8060005b8581101561340f57848403895281516133f0858261338b565b94506133fb8361339f565b925060208a019950506001810190506133d7565b50829750879550505050505092915050565b6000602082019050818103600083015261343b81846133ac565b905092915050565b60008060006060848603121561345c5761345b612ce0565b5b600084013567ffffffffffffffff81111561347a57613479612ce5565b5b61348686828701612e02565b935050602084013567ffffffffffffffff8111156134a7576134a6612ce5565b5b6134b386828701612e02565b925050604084013567ffffffffffffffff8111156134d4576134d3612ce5565b5b6134e086828701612e02565b9150509250925092565b600081519050919050565b600082825260208201905092915050565b6000819050602082019050919050565b600060608301600083015184820360008601526135338282613150565b9150506020830151848203602086015261354d8282613150565b91505060408301516135626040860182613130565b508091505092915050565b60006135798383613516565b905092915050565b6000602082019050919050565b6000613599826134ea565b6135a381856134f5565b9350836020820285016135b585613506565b8060005b858110156135f157848403895281516135d2858261356d565b94506135dd83613581565b925060208a019950506001810190506135b9565b50829750879550505050505092915050565b6000602082019050818103600083015261361d818461358e565b905092915050565b600081519050919050565b600082825260208201905092915050565b6000819050602082019050919050565b6000608083016000830151848203600086015261366e8282613150565b91505060208301516136836020860182613130565b5060408301516136966040860182613130565b5060608301516136a96060860182613189565b508091505092915050565b60006136c08383613651565b905092915050565b6000602082019050919050565b60006136e082613625565b6136ea8185613630565b9350836020820285016136fc85613641565b8060005b85811015613738578484038952815161371985826136b4565b9450613724836136c8565b925060208a01995050600181019050613700565b50829750879550505050505092915050565b6000602082019050818103600083015261376481846136d5565b905092915050565b61377581612fdd565b82525050565b6000602082019050613790600083018461376c565b92915050565b600082825260208201905092915050565b60006137b282613224565b6137bc8185613796565b93506137c783613240565b8060005b838110156137f85781516137df8882613250565b97506137ea83613268565b9250506001810190506137cb565b5085935050505092915050565b600060a08301600083015184820360008601526138228282613150565b9150506020830151848203602086015261383c8282613150565b915050604083015184820360408601526138568282613150565b915050606083015161386b6060860182613130565b506080830151848203608086015261388382826137a7565b9150508091505092915050565b600060208201905081810360008301526138aa8184613805565b905092915050565b600081519050919050565b600082825260208201905092915050565b6000819050602082019050919050565b600060a08301600083015184820360008601526138fb8282613150565b915050602083015184820360208601526139158282613150565b9150506040830151848203604086015261392f8282613150565b91505060608301516139446060860182613130565b506080830151848203608086015261395c82826137a7565b9150508091505092915050565b600061397583836138de565b905092915050565b6000602082019050919050565b6000613995826138b2565b61399f81856138bd565b9350836020820285016139b1856138ce565b8060005b858110156139ed57848403895281516139ce8582613969565b94506139d98361397d565b925060208a019950506001810190506139b5565b50829750879550505050505092915050565b60006020820190508181036000830152613a19818461398a565b905092915050565b600081905092915050565b6000613a3782612eea565b613a418185613a21565b9350613a51818560208601612f06565b80840191505092915050565b6000613a698284613a2c565b915081905092915050565b7f55736572206e6f7420746865206c6177796572206f6620746865206361736500600082015250565b6000613aaa601f83612ef5565b9150613ab582613a74565b602082019050919050565b60006020820190508181036000830152613ad981613a9d565b9050919050565b7f4e487b7100000000000000000000000000000000000000000000000000000000600052603260045260246000fd5b7f4e487b7100000000000000000000000000000000000000000000000000000000600052601160045260246000fd5b6000613b49826130a0565b91507fffffffffffffffffffffffffffffffffffffffffffffffffffffffffffffffff8203613b7b57613b7a613b0f565b5b600182019050919050565b613b8f81612e50565b82525050565b60006060820190508181036000830152613baf8186612f39565b9050613bbe6020830185613b86565b613bcb6040830184613b86565b949350505050565b7f4e487b7100000000000000000000000000000000000000000000000000000000600052602260045260246000fd5b60006002820490506001821680613c1a57607f821691505b602082108103613c2d57613c2c613bd3565b5b50919050565b7f55736572206e6f74207265676973746572656400000000000000000000000000600082015250565b6000613c69601383612ef5565b9150613c7482613c33565b602082019050919050565b60006020820190508181036000830152613c9881613c5c565b9050919050565b6000613caa826130a0565b9150613cb5836130a0565b925082821015613cc857613cc7613b0f565b5b828203905092915050565b7f4e487b7100000000000000000000000000000000000000000000000000000000600052603160045260246000fd5b7f5573657220616c72656164792072656769737465726564000000000000000000600082015250565b6000613d38601783612ef5565b9150613d4382613d02565b602082019050919050565b60006020820190508181036000830152613d6781613d2b565b9050919050565b60006060820190508181036000830152613d888186612f39565b90508181036020830152613d9c8185612f39565b9050613dab604083018461376c565b949350505050565b7f5573657220646f6573206e6f7420686176652061636365737320746f2074686560008201527f2063617365000000000000000000000000000000000000000000000000000000602082015250565b6000613e0f602583612ef5565b9150613e1a82613db3565b604082019050919050565b60006020820190508181036000830152613e3e81613e02565b9050919050565b60006080820190508181036000830152613e5f8187612f39565b90508181036020830152613e738186612f39565b90508181036040830152613e878185612f39565b9050613e966060830184613b86565b95945050505050565b7f55736572206e6f742061206c6177796572000000000000000000000000000000600082015250565b6000613ed5601183612ef5565b9150613ee082613e9f565b602082019050919050565b60006020820190508181036000830152613f0481613ec8565b9050919050565b60008190508160005260206000209050919050565b60008154613f2d81613c02565b613f378186613a21565b94506001821660008114613f525760018114613f6357613f96565b60ff19831686528186019350613f96565b613f6c85613f0b565b60005b83811015613f8e57815481890152600182019150602081019050613f6f565b838801955050505b50505092915050565b6000613fab8284613f20565b91508190509291505056fea2646970667358221220f3f521c325ead99bf9aeb930a989535ec4f1e95d4893e56489b14f717520761664736f6c634300080e0033",
  "immutableReferences": {},
  "source": "pragma solidity 0.8.14;\n\ncontract Evault{\n    string public name;\n    string public description;\n\n    constructor(\n        string memory _name,\n        string memory _description\n    ){\n        name = _name;\n        description = _description;\n    }\n\n    struct User{\n        address userAddress;\n        string name;\n        string email;\n        bool isLawyer;\n    }\n\n    mapping(address => bool) registered;\n\n    event UserRegistered(address indexed userAddress, string name, string email, bool isLawyer);\n\n    function registerUser(string memory _name, string memory _email, bool _isLawyer) public{\n        require(!registered[msg.sender], \"User already registered\");\n        registered[msg.sender] = true;\n        users[msg.sender] = User(msg.sender, _name, _email, _isLawyer);\n\n        emit UserRegistered(msg.sender, _name, _email, _isLawyer);\n    }\n\n    function getIsRegistered(address addr) public view returns(bool){\n        return registered[addr];\n    }\n\n    mapping(address => User) users;   \n\n    function getUser(address addr) public view returns(User memory){\n        return users[addr];\n    }\n\n    struct Case{\n        string caseId;\n        string name;\n        string description;\n        address lawyer;\n\n        address[] access;\n    }\n\n    struct ApprovalRequest{\n        string caseId;\n        address lawyer;\n        address client;\n        bool approved;\n    }\n\n    struct CaseFile{\n        string name;\n        string ipfsHash;\n        address uploader;\n    }\n\n    mapping (string => CaseFile[]) caseFiles;\n\n    string[] public allCaseIds;\n\n    mapping(string => Case) cases;\n    mapping(string => ApprovalRequest[]) approvalRequests;\n\n    event CaseCreated(string caseId, string name, string description, address lawyer);\n\n    function createCase(string memory _caseId, string memory _name, string memory _description) public{\n        require(registered[msg.sender], \"User not registered\");\n        require(users[msg.sender].isLawyer, \"User not a lawyer\");\n\n        cases[_caseId] = Case(_caseId, _name, _description, msg.sender, new address[](0));\n        cases[_caseId].access.push(msg.sender);\n \n        allCaseIds.push(_caseId);\n\n        emit CaseCreated(_caseId, _name, _description, msg.sender);\n    }\n\n    function getCase(string memory _caseId) public view returns(Case memory){\n        return cases[_caseId];\n    }\n\n    function getAllCases() public view returns(Case[] memory){\n        Case[] memory allCases = new Case[](allCaseIds.length);\n\n        for(uint i = 0; i < allCaseIds.length; i++){\n            allCases[i] = cases[allCaseIds[i]];\n        }\n\n        return allCases;\n    }\n\n    function getCaseAccess(string memory _caseId) public view returns(address[] memory){\n        return cases[_caseId].access;\n    }\n\n    event ApprovalRequested(string caseId, address lawyer, address client);\n\n    function requestAccess(string memory _caseId) public{\n        require(registered[msg.sender], \"User not registered\");\n\n        for(uint i = 0; i < approvalRequests[_caseId].length; i++){\n            if(approvalRequests[_caseId][i].client == msg.sender){\n                approvalRequests[_caseId][i] = approvalRequests[_caseId][approvalRequests[_caseId].length - 1];\n                approvalRequests[_caseId].pop();\n                break;\n            }\n        }\n\n        approvalRequests[_caseId].push(ApprovalRequest(_caseId, cases[_caseId].lawyer, msg.sender, false));\n\n        emit ApprovalRequested(_caseId, cases[_caseId].lawyer, msg.sender);\n    }\n\n    event ApprovalAccepted(string caseId, address lawyer, address client);\n\n    function approveAccess(string memory _caseId, address _client) public{\n        require(cases[_caseId].lawyer == msg.sender, \"User not the lawyer of the case\");\n\n        for(uint i = 0; i < approvalRequests[_caseId].length; i++){\n            if(approvalRequests[_caseId][i].client == _client){\n                approvalRequests[_caseId][i].approved = true;\n                cases[_caseId].access.push(_client);\n                break;\n            }\n        }\n\n        emit ApprovalAccepted(_caseId, msg.sender, _client);\n    }\n\n    function getApprovalRequests(string memory _caseId) public view returns(ApprovalRequest[] memory){\n        return approvalRequests[_caseId];\n    }\n\n    event AccessRevoked(string caseId, address lawyer, address client);\n\n    function revokeAccess(string memory _caseId, address _client) public{\n        require(cases[_caseId].lawyer == msg.sender, \"User not the lawyer of the case\");\n\n        for(uint i = 0; i < cases[_caseId].access.length; i++){\n            if(cases[_caseId].access[i] == _client){\n                cases[_caseId].access[i] = cases[_caseId].access[cases[_caseId].access.length - 1];\n                cases[_caseId].access.pop();\n                break;\n            }\n        }\n\n        emit AccessRevoked(_caseId, msg.sender, _client);\n    }\n\n    function getUsersWithAccess(string memory _caseId) public view returns(User[] memory){\n        address[] memory access = cases[_caseId].access;\n        User[] memory usersWithAccess = new User[](access.length);\n\n        for(uint i = 0; i < access.length; i++){\n            usersWithAccess[i] = users[access[i]];\n        }\n\n        return usersWithAccess;\n    }\n\n    event FileUploaded(string caseId, string name, string ipfsHash, address uploader);\n\n    function uploadFile(string memory _caseId, string memory _name, string memory _ipfsHash) public{\n        require(registered[msg.sender], \"User not registered\");\n\n        bool hasAccess = false;\n        for(uint i = 0; i < cases[_caseId].access.length; i++){\n            if(cases[_caseId].access[i] == msg.sender){\n                hasAccess = true;\n                break;\n            }\n        }\n\n        require(hasAccess, \"User does not have access to the case\");\n\n        caseFiles[_caseId].push(CaseFile(_name, _ipfsHash, msg.sender));\n\n        emit FileUploaded(_caseId, _name, _ipfsHash, msg.sender);\n    }\n\n    function getCaseFiles(string memory _caseId) public view returns(CaseFile[] memory){\n        return caseFiles[_caseId];\n    }\n}",
  "sourcePath": "/home/aslam/proj/college/truffle/contracts/Evault.sol",
  "compiler": {
    "name": "solc",
    "version": "0.8.14+commit.80d49f37.Emscripten.clang"
  },
  "schemaVersion": "3.4.16",
  "updatedAt": "2024-05-14T07:08:38.006Z",
  "networkType": "ethereum",
  "devdoc": {
    "kind": "dev",
    "methods": {},
    "version": 1
  },
  "userdoc": {
    "kind": "user",
    "methods": {},
    "version": 1
  }
}